:10100E0052554E202020202020202020202020203D
:10101E002020202020202020202020200053657416
:10102E0074696E6720202020202020202020202080
:10103E0020202020202020202000506C6561736528
:10104E002073657420757020202020202020202001
:10105E002020202020200053544F502020202020DC
:10106E002020202020202020202020202020202072
:10107E002020200020202020202020202020202082
:10108E002020202020202020202020202020202052
:10109E0000256400256600630063206F6B007400FA
:1010AE0074206F6B00680068206F6B00543A00204C
:1010BE002000483A00202020202020202020202020
:0510CE0020202020009D
:1015EB0082310000831E543A0083044B3A00820E72
:1015FB000001820C0000822F00008200000082029A
:02160B000000DD
:100DE9001217551216A77F011214DAEF3395E0FE98
:100DF900780EF208EFF24E700518F20804F2781D29
:100E0900E2700218E27007781CF208741EF2783456
:100E1900E2700218E270077833F208740AF21217C6
:100E290028780FE26401700218E2703F7BFF7A10A4
:100E3900790E7D017F0112156F7F021214DAEF33EB
:100E490095E0781CF208EFF27F031214DAEF33957C
:100E5900E07833F2FC08EFF2FD781CE2FE08E2FFCD
:100E6900121348C2B7D2B6D2B58058780FE26402DD
:100E7900700218E270227BFF7A10792B7D017F01C5
:100E890012156F7BFF7A1079487D017F0212156F69
:100E9900D2B7C2B6D2B5802B780FE26403700218BC
:100EA900E270207BFF7A1079657D017F0112156F51
:100EB9007BFF7A1079827D017F0212156FD2B7D23A
:100EC900B6C2B5120AA07E007827EEF208EFF2C387
:100ED9009401748094805002C12A18E2FE08E2FF4E
:100EE900D3940CEE648094804002C12A787074FF18
:100EF900F2087410F208749FF208EEF208EFF27B20
:100F0900FE7A00792112068E787074FEF208740058
:100F1900F2087421F27BFE7A0079041212DC7BFE5E
:100F29007A00790412173F7804744BF208743AF284
:050F3900E408F2C12AEA
:03000B000210D30D
:1010D300C0E0C0F0C083C082C0D075D000C000C0E3
:0D10E30001C002C003C004C005C006C00764
:1010F0007846E4F208F2758A18758CFC7801E224CF
:1011000001F218E23400F2C308E294D818E2940E17
:10111000406A1217AD7F147E0012000E121512786D
:10112000231205BB787074FFF2087410F20874A2E1
:10113000F27823E2FC08E2FD08E2FE08E2FF7873A1
:101140001205BB7BFE7A00792912068E787074FE38
:10115000F2087400F2087429F27BFE7A00791E12FC
:1011600012DC7BFE7A00791E12173F781E7454F24F
:0C11700008743AF208E4F27800F208F289
:10117C00D007D006D005D004D003D002D001D000C7
:0B118C00D0D0D082D083D0F0D0E03271
:03002300020C4C80
:100C4C00C0E0C0F0C083C082C0D075D000C000C06E
:0D0C5C0001C002C003C004C005C006C007EF
:100C6900209802A1CE780208E22410F8E599F278DA
:100C790003E22401F218E23400F208E2640C700283
:100C890018E270057802F208F2786474FFF20874C9
:100C990010F20874A5F27BFE7A007910121197EA16
:100CA900494B6068C37803E2940318E26480948036
:100CB900405A7812E2B431127D017C007F0112158D
:100CC90042780EE4F20804F280307812E2B432136A
:100CD9007D027C007F01121542780EE4F20874024D
:100CE900F280177812E2B433117D037C007F011280
:100CF9001542780EE4F2087403F27F057E001200B3
:100D09000E7BFF7A1079A712173FA1B9786474FF97
:100D1900F2087410F20874ACF27BFE7A00791012B2
:100D29001197EA494B6038C37803E2940418E264E6
:050D3900809480402AB7
:100D3E001214A2785FEEF208EFF24E601B18E2FC7E
:100D4E0008E2FD7F021215427F057E0012000E7B27
:080D5E00FF7A1079AE12173F75
:100D66008051786474FFF2087410F20874B3F27B51
:100D7600FE7A007910121197EA494B6049C378034D
:0B0D8600E2940418E264809480403B7B
:100D91001214A2785FEEF208EFF24E601B18E2FC2B
:100DA10008E2FD7F031215427F057E0012000E7BD3
:100DB100FF7A1079B512173F7802E4F208F2FE7F4C
:0B0DC1000CFD7BFE7A00791012060684
:020DCC00C298CB
:100DCE00D007D006D005D004D003D002D001D00079
:0B0DDE00D0D0D082D083D0F0D0E03223
:10134800786DEEF208EFF208ECF208EDF27BFF7A26
:101358001079BA7D017F0212156F786DE2FA08E202
:10136800FB78757402F27D03FF1216C27BFF7A10B8
:1013780079BD7D057F0212156F7BFF7A1079C07DDC
:10138800077F0212156F786FE2FA08E2FB7875742E
:1013980002F27D09FF1216C27BFF7A1079C37D0B1A
:0513A8007F0202156F39
:0614A2007BFE7A007910C8
:1014A8007D3A12168B7861EBF208EAF208E9F278D5
:1014B80061E2FB08E2FA08E24A4B60127861E2FB5B
:1014C80008E2FA08E22401F9E43AFA020F3EE4FEDF
:0114D800FF14
:0114D90022F0
:10000E00EF1FAC0670011E4C600A7D027CEFDCFE19
:04001E00DDFC80EC99
:0100220022BB
:1016A70075985043878053890F438920758BF3754D
:0B16B7008DF3C2ABD28ED2AFD2AC22BA
:080003008F993099FDC299228A
:10173F001204EE6010F5993099FDC299740129F9E0
:06174F00E43AFA80EB22EF
:101542007861EFF208ECF208EDF21217DA7FA012DE
:10155200159A1217BA7861E2FF12159A1217BA7821
:0D1562006208E2FF12159A1217BA0217EB89
:0414DA00786DEFF248
:1014DE001217DA7FA012159A1217BA786DE2FF1260
:1014EE00159A1217BA1217DA7FA112159A1217BA95
:1014FE00121631786EEFF27F011217C61217EB78C3
:03150E006EE2FF8B
:0115110022B7
:0917DA00D2A0D2A1C2A0C2A1223A
:0717EB00C2A0D2A1D2A0228E
:02159A00AD079B
:10159C00E4FB74807E00A803088006CEA2E713CE7D
:1015AC0013D8F8FFEDF582EF558224FF92A0D2A15B
:0715BC00C2A10BEBB408DB38
:0115C3002205
:10163100E4FFD2A0FED2A130A00D7480A8060880DC
:0E16410002C313D8FC4FFFC2A10EEEB408E79F
:01164F002278
:0A17C600EF24FF92A0D2A1C2A122DD
:0B17BA00D2A0D2A1A2A0E433FFC2A184
:0117C5002201
:06178F00C2A58F80D2A765
:081795007F027EEFDEFEDFFCA7
:01179D002229
:0A17D000C2A612178FC2A7021795D8
:10160E00E2FC08E2FDCFCDCFCECCCE1205587C0049
:09161E007D0A120558ED2430FF8D
:0A162700D2A612178FC2A702179572
:05166E00EAF208EBF2B6
:10167300AE07EEB40104ED148007EEB40209ED24C5
:081683003F4480FF1217D02242
:101755007F381217D07F0C1217D07F061217D07F53
:04176500010217D096
:0817E300121673AF0302162772
:0A156F007871EBF208EAF208E9F2E5
:10157900121673E4FD7871E2FB08E2FA08E2F98DCC
:1015890082758300120507FF60061216270D80E594
:01159900222F
:0C13AD007F0AEA24FFFDE434FFFC7E0010
:0D13B9007876EEF208EFF208ECF208EDF2A3
:1013C6007F017E00E4FBEBFDD37879E29D7480F526
:1013D600F018E2648095F0400D7876E2FC08E2FDB4
:0613E6001205460B80E039
:0113EC0022DE
:0216C20078733B
:1016C40012166E08E2FAEAD39400400B1213AD78B6
:0716D4007312160E1A80EFDD
:0116DB0022EC
:1013ED00121673C3EA64809480400E7F2B12162769
:1013FD00783AEAF208EBF280117F2D121627C3E43A
:10140D009BFEE49A783AF208CEF27839E2FAEAD302
:0F141D009400400B1213AD783A12160E1A80EF9E
:01142C00229D
:02142D00783E07
:10142F0012166E08E2FAEAD39400402C7F101213C2
:10143F00AF783EE2FC08E2FDCFCDCFCECCCE120589
:10144F0058EF540FFEC3940AEE5004243080022448
:08145F0037FF1216271A80CE98
:011467002262
:021468007843C7
:10146A0012166E08E2FAEAD39400402BEA24FFFD32
:10147A00E434FFFC7F027E001213B97843E2FC08D1
:10148A00E2FDCFCDCFCECCCE120558EF5401243099
:07149A00FF1216271A80CF94
:0114A1002228
:0D17AD001216DC7FCC1216F67F440216F6F1
:101512001216DC7FCC1216F67FBE1216F612165089
:101522007848EFF2121650EFFE7848E2FDEDFFAC7C
:0F15320006EC1200CBE4FBFA7980784112002915
:011541002287
:1016DC00D2A2C2A27FF7DFFED2A27F20DFFEA2A29F
:0916EC00E433FE7FF7DFFEAF06D8
:0116F50022D2
:10177D00C2A27E04DEFEEF24FF92A27E18DEFED210
:01178D00A2B9
:01178E002238
:10171000C2A27F02DFFED2A27F02DFFEA2A2E433DA
:07172000FE7F18DFFEAF069B
:01172700229F
:0216F600AD073E
:1016F800E4FC7401A804088002C333D8FC5DFF121F
:07170800177D0CECB408EBA7
:01170F0022B7
:10165000E4FDFC121710EF600D7401A8040880026D
:0D166000C333D8FC4DFD0CECB408E8AF0519
:01166D00225A
:101728005389F0438901758A18758CFCC28DD28C57
:07173800D2A9D2AFC2B92211
:100AA000E4786DF27580FFC2832087157F14FE12F3
:100AB000000E3087FD7F147E0012000E786D7401E9
:100AC000F22086167F147E0012000E3086FD7F1401
:100AD0007E0012000E786D7405F22085167F147E5C
:100AE0000012000E3085FD7F147E0012000E786D1E
:100AF0007409F22084167F147E0012000E3084FDEB
:100B00007F147E0012000E786D740DF27580FFC2A6
:100B1000822087167F147E0012000E3087FD7F141E
:100B20007E0012000E786D7402F22086167F147E0D
:100B30000012000E3086FD7F147E0012000E786DCC
:100B40007406F22085167F147E0012000E3085FD9B
:100B50007F147E0012000E786D740AF22084167FD6
:100B6000147E0012000E3084FD7F147E0012000EF1
:100B7000786D740EF27580FFC2812087167F147E17
:100B80000012000E3087FD7F147E0012000E786D7B
:100B90007403F22086167F147E0012000E3086FD4C
:100BA0007F147E0012000E786D7407F22085167F88
:100BB000147E0012000E3085FD7F147E0012000EA0
:100BC000786D740BF22084167F147E0012000E30B4
:100BD00084FD7F147E0012000E786D740FF2758014
:100BE000FFC2802087167F147E0012000E3087FD22
:100BF0007F147E0012000E786D7404F22086167F3A
:100C0000147E0012000E3086FD7F147E0012000E4E
:100C1000786D7408F22085167F147E0012000E3065
:100C200085FD7F147E0012000E786D740CF2208416
:100C3000167F147E0012000E3084FD7F147E001299
:0B0C4000000E786D7410F2786DE2FF7A
:010C4B002286
:10002600020143EC5D046005E859047003020139DE
:10003600120104580460F6EC4860F2EC7004FDFE10
:10004600FF22C860DB2481C85009C39860025006AD
:100056000201409850CAF582E9294B4A7005AB82E5
:1000660002012F75F0007C1A7880C3EF9BEE9AEDA3
:1000760099400DC3EF9BFFEE9AFEED99FDE842F025
:10008600DC23ACF0D0E0FFD0E0FED0E0FDAB822078
:10009600E7101BEB60BAEC2CFCEF33FFEE33FEED02
:1000A60033FD02011BE803F830E705C0F075F000E8
:1000B600EF2FFFEE33FEED33FD40B830E7C280AAE6
:1000C60075F020800E75F010800575F0087D007EB5
:1000D600007F003392D530D5031205ADEC334010C6
:1000E600EF33FFEE33FEED33FDEC33FCD5F0ED22BE
:0E00F600E5F0247EA2D513CC92E7CDCEFF22FA
:10063200E50D2470F8E2050D22786D301102787014
:10064200E475F0011205C70204EE200AEB7F2ED2F8
:100652000A8018EF540F2490D43440D4FF300E0B8C
:10066200EF24BFB41A0050032461FFE50E600215A7
:100672000E0511E5117002051030110D786DE4754B
:10068200F0011205C7EF0205340215C47403D2113A
:100692008003E4C211F50D786D1205D7E4F50EF56D
:1006A20010F511E50E60077F2012066D80F5750FBB
:1006B200FFC20BC20AC20CC20DC20FC210C212127A
:1006C200063BFF700D3011057F0012067EAF11AEA2
:1006D2001022B4255FC2D5C20E12063BFF24D0B44D
:1006E2000A00501A75F00A780E30D50508B6FF01D7
:1006F20006C6A426F620D5047002D20D80D924CFD6
:10070200B41A00EF5004C2E5D20E02096AD20B807D
:10071200C6D20A80C0D20C80BCD2D580BAD20F8099
:10072200B47F2012066D200C077401B50E0040F153
:10073200120632FF12066D0206A5D212D210809561
:10074200120632FB120632FA120632F94A4B7006D0
:1007520079617A0A7BFF200C2EE50E602A7E008EDC
:100762008275830012050760060EEE650F70F0C2F7
:10077200D5EBC0E0EAC0E0E9C0E0EE1209CAD0E081
:10078200F9D0E0FAD0E0FB1204EEFF60AAEBC0E081
:10079200EAC0E0E9C0E012066DD0E02401F9D0E041
:1007A2003400FAD0E0FBE50F0460DCD50FD9808776
:1007B200D20C80A21209AD60F7E50F70010412019C
:1007C2004EA90F600DE50F600914F50F120A54EFE0
:1007D20060F3EA30E702F404C3995077EAF4250F94
:1007E2000430E701E404F50F800D1209AD60C1EA9F
:1007F200050F250F12014EEA7883F230E701E42556
:100802000F04D50F04200F01141209CAE4C0E0122C
:100812000A547883E2601320E70714F21206558027
:100822002204F2D0E014C0E07F00120655E50F600A
:100832000712064C150F800B300F0312064CD0E046
:100842000206A5D0E00480C51209AD60A0E50F0440
:1008520012014E7883EAF2E50F200F0260010424B0
:0C086200041209CA74FF04C0E0120A541A
:10086E00120655E50F200F02600312064CD0E0B5BC
:10087E000FE87F4512065F7883E27F2B30E7047F17
:10088E002DF404C0E012066DD0E075F00A84C0F0BD
:10089E00120656D0E01206560206A579108002798D
:1008AE0008C210C2128008D2D5790A8004790AC211
:1008BE00D5E50F047002F50FE4FAFDFEFF120632C5
:1008CE00FC7B08200B13120632FD7B10300A0A1235
:1008DE000632FE120632FF7B20EC3382D592D550C3
:1008EE0013C3E4300A069FFFE49EFEE4200B039D33
:1008FE00FDE49CFCE4CBF8C20BEC700CCFCECDCC5F
:10090E00E824F8F870F38017C3EF33FFEE33FEEDF3
:10091E0033FDEC33FCEB33FB994002FB0FD8E9EBD4
:10092E00300B05F8D0E0C448B20BC0E00AEC4D4ED7
:10093E004F78207B0070C2EAB50F0040BCC0E012B9
:10094E0009CCD0F0D0E0200B04C4C0E0C4B20BC080
:10095E00F0120656D0F0D5F0EB0206A51205E00710
:10096E00425308A95807134C070F4208AD4F08B55C
:10097E004408B54907284308BB5507EC46084A45C5
:10098E0007B6470A815007172D071B2E073E2B0768
:10099E001F23073C200A6A2A06D74800000736E5BF
:1009AE000FB4FF03750F06120632FC120632FD124B
:1009BE000632FE120632FF787C02017D790AA2D53C
:1009CE00200D14300F09B910020404B9080104A255
:1009DE00D5201002500104200C68920CB50E005068
:1009EE0034C0E07F20300D197F30A20C7210720FD0
:1009FE00500F120A23C20CC210C20FC2127F3080D7
:100A0E000F300F03E9C0E012066D300F03D0E0F98E
:100A1E00D0E0B50ECC300F177F30B9100C12066D2A
:100A2E007F58300E077F788003B9080312066D30A9
:100A3E000C057F2D02066D7F202012F87F2B2010D3
:100A4E00F322920C80CF7F00B407005005247CF86F
:100A5E00E2FF22286E756C6C2900D20B1206323022
:100A6E000BF8C20B780E30D50108F60206D72D50C2
:100A7E004349581206322403B405004001E4900A9B
:100A8E007C9312065E743A12065ED20D750E040247
:020A9E0008A9A5
:10010400E9D2E7C933E833F892D5EDD2E7CD33EC41
:0701140033FC5002B2D522BA
:10011B00EC30E7100FBF000C0EBE00080DBD000445
:10012B000BEB6014A2D5EB13FCED92E7FD2274FFF1
:10013B00FCFDFEFF22E480F8A2D574FF13FC7D804A
:03014B00E480EF5E
:10014E00F920E72824F950037907E4F42402FB1878
:10015E00DBFDE224FB5014E9600DE4F218E204F238
:0F016E00B40A08E4F2D9F57401F20A22C2D522CC
:10017D00ED33EC3392D5FA602AB4FF33EDC2E77B51
:10018D00FF60067A0179A2E4227A0179AB20D504C9
:10019D007A0179A6224E614E002B494E46002D491B
:1001AD004E4600E47A08F208DAFC7B00740722E878
:1001BD00C0E0ECC0E0EDC0E0EEC0E0EFC0E0EA75FD
:1001CD00F010A4CAABF075F04DA42BFBE435F0FC98
:1001DD00EA2410FAEB34C5FBEC34D9FCEDC2E7FF91
:1001ED0075F056A4F42411C5F0F434C58FF0A42A8B
:1001FD00E5F03BE43CF220E7141204AED0E0FFD072
:10020D00E0FED0E0FDD0E0FC1200298014F40412D1
:10021D0004AED0E0FFD0E0FED0E0FDD0E0FC120354
:10022D0078D0E0F8E2FAEDD2E7CD33EC332482FB5F
:10023D00E4C3CF33CFCE33CECD33CD33DBF37B071A
:10024D0075F00A846004F2081B0AE5F0F2088FF0DD
:10025D00740AA4FFACF08EF0740AA42CFEACF0501E
:10026D00010C8DF0740AA42CFDE435F0F208DBDEF0
:03027D00740722E1
:10028000020139E86480F8E933E83360110460F072
:10029000ED33EC337009E8FCE9FDEAFEEBFF2204E4
:1002A00060DED3EB9FEA9EE99DE8C2E78CF0C2F7DF
:1002B00095F0400CE8CCF8E9CDF9EACEFAEBCFFBAB
:1002C00012010485D0F05804700320D5B3E80470FF
:1002D000075002B2D502014392D5EC0460F7E4CC9A
:1002E000C0E0C398F8603B94186008400DD0E0FB74
:1002F00002011BE4FBFAC9FC8028E830E406E4C9EB
:10030000FBE4CAFCE830E305E4C9CACBFCE85407C7
:100310006010F8C3E913F9EA13FAEB13FBEC13FCD2
:10032000D8F130F52FC3E49CFCEF9BFFEE9AFEED75
:1003300099FDD0E0FBEF4E4D4C701222DB03020121
:1003400040EC2CFCEF33FFEE33FEED33FDED30E7F8
:10035000EB02011BEF2BFFEE3AFEED39FDD0E0FB87
:1003600050130BBB0003020143ED13FDEE13FEEF30
:0803700013FFEC13FC02011B5A
:10037800EC4D6011E8497017ED33EC3304600DE47F
:10038800FCFFFEFD22E933E8330470F8020139125C
:10039800010458046009E4CC24815006285009025D
:1003A8000143284003020140C0E0EB4A7044B98091
:1003B80006D0E0FB02012FEF4E701CBD8008EBFF5A
:1003C800EAFEE9FD80EBE98DF0A4FEE5F0020461A8
:1003D800E9CDF9EAFEEBFFEF89F0A4FCE5F0CE8960
:1003E800F0A42EFFE435F0CD89F0A42DFEE435F01D
:1003F8008067EF4E7005BD80D780C3EF8BF0A4AC4B
:10040800F0EE8BF0A42CFCE435F0F8EF8AF0A42C85
:10041800E5F038FCE433CB8DF0A42CFCE5F03BF898
:10042800EE8AF0A42CFCE5F038F8E433CF89F0A488
:100438002CFCE5F038CF3400CE89F0A42FFFE5F08E
:100448003EFEE433C98DF0A42EFEE5F039CD8AF0E6
:10045800A42FFFE5F03EFEE43DFD33D0E0FB50075E
:100468000BBB000F020143EC2CFCEF33FFEE33FE15
:06047800ED33FD02011B43
:10047E003F8000004120000042C80000447A000086
:10048E00461C400047C35000497424004B18968008
:10049E004CBEBC205A0E1BCA6753C21C749DC5AEFF
:1004AE00FB60065407601C23231204DCEB543860F7
:1004BE00091204C81204D7120378ECF8EDF9EEFA1B
:1004CE00EFCB22EB1204D780F1543803241C900496
:1004DE007EFE93FC0EEE93FD0EEE930ECE93FF2258
:0300000002125099
:0C125000787FE4F6D8FD75812202129729
:1004EE00BB010689828A83E0225002E722BBFE020C
:0904FE00E32289828A83E493223F
:10050700BB010CE58229F582E5833AF583E02250A9
:1005170006E92582F8E622BBFE06E92582F8E222F3
:0D052700E58229F582E5833AF583E493220D
:10053400BB010689828A83F0225002F722BBFE01A6
:02054400F322A0
:10054600EF8DF0A4A8F0CF8CF0A428CE8DF0A42EC9
:02055600FE2283
:10055800BC000BBE0029EF8DF084FFADF022E4CC87
:10056800F875F008EF2FFFEE33FEEC33FCEE9DEC50
:10057800984005FCEE9DFE0FD5F0E9E4CEFD22ED96
:10058800F8F5F0EE8420D21CFEADF075F008EF2FE0
:10059800FFED33FD4007985006D5F0F222C398FDD1
:0505A8000FD5F0EA226E
:0E05AD00C3E49FFFE49EFEE49DFDE49CFC225F
:0C05BB00ECF208EDF208EEF208EFF2227C
:1005C700FAE2FB0808E2F925F0F218E2CA3AF22249
:0905D700EBF208EAF208E9F22255
:1005E000D083D082F8E4937012740193700DA3A3AA
:1005F00093F8740193F5828883E4737402936860BE
:06060000EFA3A3A380DFBD
:1015C400EFB40A07740D1215CF740A309811A89954
:1015D400B8130CC2983098FDA899C298B811F63087
:0715E40099FDC299F599225F
:1012DC00786DEBF208EAF208E9F27873EBF208EABF
:1012EC00F208E9F2786DE2FB0808E2F92401F21841
:1012FC00E2FA3400F21204EE70EA786FE224FFF2A4
:10130C0018E234FFF27870E2FB0808E2F92401F2EB
:10131C0018E2FA3400F21204EEFF786DE2FB0808D2
:10132C00E2F92401F218E2FA3400F2EF12053470FB
:0C133C00D47873E2FB08E2FA08E2F92220
:10168B00E94A4B7001221204EEFF6D700122EF70DC
:0C169B0004FBFAF92209E970ED0A80EA6C
:101197007861EBF208EAF208E9F208E2FB08E2FA02
:1011A70008E2F91204EE700302123E7861E2FB08CE
:1011B700E2FA08E2F91204EE700302124908E2F9B2
:1011C70008E2FA08E208C9F208EAF208E9F27861E7
:1011D700E2F908E2FA08E2786AC9F208EAF208E9ED
:1011E700F27867E2FB08E2FA08E2F91204EEFF6020
:1011F7002708E2FB08E2FA08E2F91204EE6F70181A
:101207007869E22401F218E23400F2786CE22401F2
:10121700F218E23400F280C97867E2FB08E2FA08C4
:10122700E2F91204EE7002800E7863E22401F218EC
:10123700E23400F20211B27861E2FB08E2FA08E256
:09124700F9227B007A00790022F3
:100F3E007864EBF208EAF208E9F27864E2FB08E280
:100F4E00FA08E2F91204EEFF121769500D7866E204
:100F5E002401F218E23400F280E0D2097864E2FB58
:100F6E0008E2FA08E2F91204EEFF642B6004EFB413
:100F7E002D1E7864E2FB0808E2F92401F218E2FA69
:100F8E003400F21204EE642D6003D38001C3920983
:100F9E00E47867F208F27864E2FB08E2FA08E2F914
:100FAE001204EEFF12179E503C7864E2FB08E2FA40
:100FBE0008E2F91204EEFF3395E0FEEF24D0FBEECB
:100FCE0034FFFA08E2FE08E2FF7C007D0A120546B5
:100FDE00EF2B7868F2EE3A18F218E22401F218E2DA
:100FEE003400F280B13009097867E2FE08E2FF8032
:100FFE000E7867E2FE08E2FFC3E49FFFE49EFE2246
:10060600EF4E6012EF60010EEDBB010B89828A830B
:10061600F0A3DFFCDEFA2289F05007F709DFFCA918
:0C062600F022BBFEFCF309DFFCA9F0226F
:10125C00020DE9E493A3F8E493A34003F68001F2B2
:10126C0008DFF48029E493A3F85407240CC8C33393
:10127C00C4540F4420C8834004F456800146F6DF62
:10128C00E4800B01020408102040809015EBE47EF2
:10129C00019360BCA3FF543F30E509541FFEE49357
:1012AC00A360010ECF54C025E060A840B8E493A31E
:1012BC00FAE493A3F8E493A3C8C582C8CAC583CA49
:1012CC00F0A3C8C582C8CAC583CADFE9DEE780BE01
:01160D0000DC
:0F179E00EFC394304007EF943A50028001C3220A
:10176900EFC394094005EF940E4004EFB42003D36E
:041779008001C32206
:00000001FF
